{
  "_format": "hh-sol-artifact-1",
  "contractName": "PollingSys",
  "sourceName": "contracts/PollingSys.sol",
  "abi": [
    {
      "anonymous": false,
      "inputs": [
        {
          "indexed": false,
          "internalType": "uint8",
          "name": "pollId",
          "type": "uint8"
        },
        {
          "indexed": false,
          "internalType": "uint8",
          "name": "optionId",
          "type": "uint8"
        },
        {
          "indexed": false,
          "internalType": "string",
          "name": "name",
          "type": "string"
        }
      ],
      "name": "OptionAdded",
      "type": "event"
    },
    {
      "anonymous": false,
      "inputs": [
        {
          "indexed": false,
          "internalType": "uint8",
          "name": "pollId",
          "type": "uint8"
        },
        {
          "indexed": false,
          "internalType": "address",
          "name": "author",
          "type": "address"
        },
        {
          "indexed": false,
          "internalType": "string",
          "name": "title",
          "type": "string"
        }
      ],
      "name": "PollCreated",
      "type": "event"
    },
    {
      "anonymous": false,
      "inputs": [
        {
          "indexed": false,
          "internalType": "uint8",
          "name": "pollId",
          "type": "uint8"
        },
        {
          "indexed": false,
          "internalType": "address",
          "name": "voter",
          "type": "address"
        },
        {
          "indexed": false,
          "internalType": "uint8",
          "name": "optionId",
          "type": "uint8"
        }
      ],
      "name": "Voted",
      "type": "event"
    },
    {
      "inputs": [
        {
          "internalType": "uint8",
          "name": "_pollId",
          "type": "uint8"
        },
        {
          "internalType": "string",
          "name": "_name",
          "type": "string"
        }
      ],
      "name": "add",
      "outputs": [],
      "stateMutability": "nonpayable",
      "type": "function"
    },
    {
      "inputs": [
        {
          "internalType": "string",
          "name": "_title",
          "type": "string"
        }
      ],
      "name": "create",
      "outputs": [],
      "stateMutability": "nonpayable",
      "type": "function"
    },
    {
      "inputs": [
        {
          "internalType": "uint8",
          "name": "_pollId",
          "type": "uint8"
        },
        {
          "internalType": "uint8",
          "name": "_optionId",
          "type": "uint8"
        }
      ],
      "name": "getOptionById",
      "outputs": [
        {
          "components": [
            {
              "internalType": "uint8",
              "name": "id",
              "type": "uint8"
            },
            {
              "internalType": "string",
              "name": "name",
              "type": "string"
            },
            {
              "internalType": "uint256",
              "name": "voteCount",
              "type": "uint256"
            }
          ],
          "internalType": "struct PollingSys.Option",
          "name": "",
          "type": "tuple"
        }
      ],
      "stateMutability": "view",
      "type": "function"
    },
    {
      "inputs": [
        {
          "internalType": "uint8",
          "name": "_pollId",
          "type": "uint8"
        }
      ],
      "name": "getPollResult",
      "outputs": [
        {
          "internalType": "uint8[]",
          "name": "optionIds",
          "type": "uint8[]"
        },
        {
          "internalType": "uint256[]",
          "name": "voteCounts",
          "type": "uint256[]"
        }
      ],
      "stateMutability": "view",
      "type": "function"
    },
    {
      "inputs": [
        {
          "internalType": "uint8",
          "name": "_pollId",
          "type": "uint8"
        },
        {
          "internalType": "uint8",
          "name": "_optionId",
          "type": "uint8"
        }
      ],
      "name": "getVoteCount",
      "outputs": [
        {
          "internalType": "uint256",
          "name": "",
          "type": "uint256"
        }
      ],
      "stateMutability": "view",
      "type": "function"
    },
    {
      "inputs": [
        {
          "internalType": "uint8",
          "name": "_pollId",
          "type": "uint8"
        },
        {
          "internalType": "address",
          "name": "_voter",
          "type": "address"
        }
      ],
      "name": "hasVoted",
      "outputs": [
        {
          "internalType": "bool",
          "name": "",
          "type": "bool"
        }
      ],
      "stateMutability": "view",
      "type": "function"
    },
    {
      "inputs": [],
      "name": "pollCount",
      "outputs": [
        {
          "internalType": "uint8",
          "name": "",
          "type": "uint8"
        }
      ],
      "stateMutability": "view",
      "type": "function"
    },
    {
      "inputs": [
        {
          "internalType": "uint8",
          "name": "",
          "type": "uint8"
        }
      ],
      "name": "polls",
      "outputs": [
        {
          "internalType": "uint8",
          "name": "id",
          "type": "uint8"
        },
        {
          "internalType": "address",
          "name": "author",
          "type": "address"
        },
        {
          "internalType": "string",
          "name": "title",
          "type": "string"
        },
        {
          "internalType": "uint8",
          "name": "optionsCount",
          "type": "uint8"
        }
      ],
      "stateMutability": "view",
      "type": "function"
    },
    {
      "inputs": [
        {
          "internalType": "uint8",
          "name": "_pollId",
          "type": "uint8"
        },
        {
          "internalType": "uint8",
          "name": "_optionId",
          "type": "uint8"
        }
      ],
      "name": "vote",
      "outputs": [],
      "stateMutability": "nonpayable",
      "type": "function"
    }
  ],
  "bytecode": "0x6080604052348015600f57600080fd5b50610e148061001f6000396000f3fe608060405234801561001057600080fd5b50600436106100935760003560e01c80639207891d116100665780639207891d1461014b578063927011dd1461016a578063b6a46b3b1461018d578063c8e1107d146101a0578063df49c4de146101e857600080fd5b806304b1d1731461009857806310eaa61d146100c25780634e081c5e146100e257806387288440146100f7575b600080fd5b6100ab6100a63660046108ab565b6101fb565b6040516100b99291906108cd565b60405180910390f35b6100d56100d0366004610952565b61035c565b6040516100b991906109cb565b6100f56100f0366004610aaf565b610461565b005b61013b610105366004610afd565b60ff91821660009081526001602090815260408083206001600160a01b0394909416835260049093019052205461010090041690565b60405190151581526020016100b9565b6000546101589060ff1681565b60405160ff90911681526020016100b9565b61017d6101783660046108ab565b6105c2565b6040516100b99493929190610b40565b6100f561019b366004610b81565b610685565b6101da6101ae366004610952565b60ff91821660009081526001602090815260408083209390941682526003909201909152206002015490565b6040519081526020016100b9565b6100f56101f6366004610952565b610738565b60ff80821660009081526001602052604090206002810154606092839291168067ffffffffffffffff81111561023357610233610a0a565b60405190808252806020026020018201604052801561025c578160200160208202803683370190505b5093508060ff1667ffffffffffffffff81111561027b5761027b610a0a565b6040519080825280602002602001820160405280156102a4578160200160208202803683370190505b50925060015b8160ff168160ff16116103545760ff808216600090815260038501602052604090205416856102da600184610bd4565b60ff16815181106102ed576102ed610bed565b60ff928316602091820292909201810191909152908216600090815260038501909152604090206002015484610324600184610bd4565b60ff168151811061033757610337610bed565b60209081029190910101528061034c81610c03565b9150506102aa565b505050915091565b6103836040518060600160405280600060ff16815260200160608152602001600081525090565b60ff80841660009081526001602081815260408084208786168552600301825292839020835160608101909452805490941683529083018054929392918401916103cc90610c22565b80601f01602080910402602001604051908101604052809291908181526020018280546103f890610c22565b80156104455780601f1061041a57610100808354040283529160200191610445565b820191906000526020600020905b81548152906001019060200180831161042857829003601f168201915b5050505050815260200160028201548152505090505b92915050565b60ff8216600090815260016020526040902054829061010090046001600160a01b031633146104d75760405162461bcd60e51b815260206004820181905260248201527f4f6e6c7920617574686f722063616e206d616e616765207468697320706f6c6c60448201526064015b60405180910390fd5b60ff80841660009081526001602052604081206002810180549193919091169161050083610c03565b82546101009290920a60ff818102199093169183160217909155604080516060810182526002850154831680825260208083018981526000848601819052928352600388019091529290208151815460ff191694169390931783559051909250600182019061056f9082610cab565b5060409182015160029182015582015490517f68f0f4f8783fab504e65f3c157502ba148ae373c1c7f0d365c8d33cfa62e5854916105b491879160ff16908790610d6a565b60405180910390a150505050565b60016020819052600091825260409091208054918101805460ff84169361010090046001600160a01b03169291906105f990610c22565b80601f016020809104026020016040519081016040528092919081815260200182805461062590610c22565b80156106725780601f1061064757610100808354040283529160200191610672565b820191906000526020600020905b81548152906001019060200180831161065557829003601f168201915b5050506002909301549192505060ff1684565b6000805460ff16908061069783610c03565b825461010092830a60ff8181021990921692821602919091179092556000805490921680835260016020819052604090932080546001600160a81b03191690911733909202919091178155915081016106f08382610cab565b506000546040517fc6b59520e007e34c40ece452816742b025a34e535a2853e2f3b246b9d603305f9161072c9160ff9091169033908690610d98565b60405180910390a15050565b60ff808316600090815260016020908152604080832033845260048101909252909120805491929091610100900416156107b45760405162461bcd60e51b815260206004820152601760248201527f566f7465722068617320616c726561647920766f74656400000000000000000060448201526064016104ce565b60008360ff161180156107d25750600282015460ff90811690841611155b61080f5760405162461bcd60e51b815260206004820152600e60248201526d24b73b30b634b21037b83a34b7b760911b60448201526064016104ce565b60ff83166000908152600383016020526040812060020180549161083283610dc5565b9091555050805460ff84811662010000810262ffff0019909316929092176101001783556040805191871682523360208301528101919091527f51c6541400e7d16e7c379115ca484756f9f6217b0e25bee5121f2c28d3bb5420906060016105b4565b803560ff811681146108a657600080fd5b919050565b6000602082840312156108bd57600080fd5b6108c682610895565b9392505050565b6040808252835190820181905260009060208501906060840190835b8181101561090a57835160ff168352602093840193909201916001016108e9565b50508381036020808601919091528551808352918101925085019060005b81811015610946578251845260209384019390920191600101610928565b50919695505050505050565b6000806040838503121561096557600080fd5b61096e83610895565b915061097c60208401610895565b90509250929050565b6000815180845260005b818110156109ab5760208185018101518683018201520161098f565b506000602082860101526020601f19601f83011685010191505092915050565b6020815260ff825116602082015260006020830151606060408401526109f46080840182610985565b9050604084015160608401528091505092915050565b634e487b7160e01b600052604160045260246000fd5b600082601f830112610a3157600080fd5b813567ffffffffffffffff811115610a4b57610a4b610a0a565b604051601f8201601f19908116603f0116810167ffffffffffffffff81118282101715610a7a57610a7a610a0a565b604052818152838201602001851015610a9257600080fd5b816020850160208301376000918101602001919091529392505050565b60008060408385031215610ac257600080fd5b610acb83610895565b9150602083013567ffffffffffffffff811115610ae757600080fd5b610af385828601610a20565b9150509250929050565b60008060408385031215610b1057600080fd5b610b1983610895565b915060208301356001600160a01b0381168114610b3557600080fd5b809150509250929050565b60ff851681526001600160a01b0384166020820152608060408201819052600090610b6d90830185610985565b905060ff8316606083015295945050505050565b600060208284031215610b9357600080fd5b813567ffffffffffffffff811115610baa57600080fd5b610bb684828501610a20565b949350505050565b634e487b7160e01b600052601160045260246000fd5b60ff828116828216039081111561045b5761045b610bbe565b634e487b7160e01b600052603260045260246000fd5b600060ff821660ff8103610c1957610c19610bbe565b60010192915050565b600181811c90821680610c3657607f821691505b602082108103610c5657634e487b7160e01b600052602260045260246000fd5b50919050565b601f821115610ca657806000526020600020601f840160051c81016020851015610c835750805b601f840160051c820191505b81811015610ca35760008155600101610c8f565b50505b505050565b815167ffffffffffffffff811115610cc557610cc5610a0a565b610cd981610cd38454610c22565b84610c5c565b6020601f821160018114610d0d5760008315610cf55750848201515b600019600385901b1c1916600184901b178455610ca3565b600084815260208120601f198516915b82811015610d3d5787850151825560209485019460019092019101610d1d565b5084821015610d5b5786840151600019600387901b60f8161c191681555b50505050600190811b01905550565b60ff8416815260ff83166020820152606060408201526000610d8f6060830184610985565b95945050505050565b60ff841681526001600160a01b0383166020820152606060408201819052600090610d8f90830184610985565b600060018201610dd757610dd7610bbe565b506001019056fea2646970667358221220a7c310a951f0c8b1bf9ab6f12de77fb7ea78b59728ea0144e3db2a51c6d197b764736f6c634300081c0033",
  "linkReferences": {},
  "deployedLinkReferences": {}
}