{
  "_format": "hh-sol-artifact-1",
  "contractName": "PollingSys",
  "sourceName": "contracts/PollingSys.sol",
  "abi": [
    {
      "anonymous": false,
      "inputs": [
        {
          "indexed": false,
          "internalType": "uint8",
          "name": "pollId",
          "type": "uint8"
        },
        {
          "indexed": false,
          "internalType": "uint8",
          "name": "optionId",
          "type": "uint8"
        },
        {
          "indexed": false,
          "internalType": "string",
          "name": "name",
          "type": "string"
        }
      ],
      "name": "OptionAdded",
      "type": "event"
    },
    {
      "anonymous": false,
      "inputs": [
        {
          "indexed": false,
          "internalType": "uint8",
          "name": "pollId",
          "type": "uint8"
        },
        {
          "indexed": false,
          "internalType": "address",
          "name": "author",
          "type": "address"
        },
        {
          "indexed": false,
          "internalType": "string",
          "name": "title",
          "type": "string"
        }
      ],
      "name": "PollCreated",
      "type": "event"
    },
    {
      "anonymous": false,
      "inputs": [
        {
          "indexed": true,
          "internalType": "uint8",
          "name": "pollId",
          "type": "uint8"
        },
        {
          "indexed": false,
          "internalType": "enum PollingSys.STATE",
          "name": "newState",
          "type": "uint8"
        }
      ],
      "name": "StateChanged",
      "type": "event"
    },
    {
      "anonymous": false,
      "inputs": [
        {
          "indexed": false,
          "internalType": "uint8",
          "name": "pollId",
          "type": "uint8"
        },
        {
          "indexed": false,
          "internalType": "address",
          "name": "voter",
          "type": "address"
        },
        {
          "indexed": false,
          "internalType": "uint8",
          "name": "optionId",
          "type": "uint8"
        }
      ],
      "name": "Voted",
      "type": "event"
    },
    {
      "inputs": [
        {
          "internalType": "uint8",
          "name": "_pollId",
          "type": "uint8"
        },
        {
          "internalType": "string",
          "name": "_name",
          "type": "string"
        }
      ],
      "name": "add",
      "outputs": [],
      "stateMutability": "nonpayable",
      "type": "function"
    },
    {
      "inputs": [
        {
          "internalType": "string",
          "name": "_title",
          "type": "string"
        }
      ],
      "name": "create",
      "outputs": [],
      "stateMutability": "nonpayable",
      "type": "function"
    },
    {
      "inputs": [
        {
          "internalType": "uint8",
          "name": "_pollId",
          "type": "uint8"
        },
        {
          "internalType": "uint8",
          "name": "_optionId",
          "type": "uint8"
        }
      ],
      "name": "getOptionById",
      "outputs": [
        {
          "components": [
            {
              "internalType": "uint8",
              "name": "id",
              "type": "uint8"
            },
            {
              "internalType": "string",
              "name": "name",
              "type": "string"
            },
            {
              "internalType": "uint256",
              "name": "voteCount",
              "type": "uint256"
            }
          ],
          "internalType": "struct PollingSys.Option",
          "name": "",
          "type": "tuple"
        }
      ],
      "stateMutability": "view",
      "type": "function"
    },
    {
      "inputs": [
        {
          "internalType": "uint8",
          "name": "_pollId",
          "type": "uint8"
        }
      ],
      "name": "getPollResult",
      "outputs": [
        {
          "internalType": "uint8[]",
          "name": "optionIds",
          "type": "uint8[]"
        },
        {
          "internalType": "uint256[]",
          "name": "voteCounts",
          "type": "uint256[]"
        }
      ],
      "stateMutability": "view",
      "type": "function"
    },
    {
      "inputs": [
        {
          "internalType": "uint8",
          "name": "_pollId",
          "type": "uint8"
        },
        {
          "internalType": "uint8",
          "name": "_optionId",
          "type": "uint8"
        }
      ],
      "name": "getVoteCount",
      "outputs": [
        {
          "internalType": "uint256",
          "name": "",
          "type": "uint256"
        }
      ],
      "stateMutability": "view",
      "type": "function"
    },
    {
      "inputs": [
        {
          "internalType": "uint8",
          "name": "_pollId",
          "type": "uint8"
        },
        {
          "internalType": "address",
          "name": "_voter",
          "type": "address"
        }
      ],
      "name": "hasVoted",
      "outputs": [
        {
          "internalType": "bool",
          "name": "",
          "type": "bool"
        }
      ],
      "stateMutability": "view",
      "type": "function"
    },
    {
      "inputs": [],
      "name": "pollCount",
      "outputs": [
        {
          "internalType": "uint8",
          "name": "",
          "type": "uint8"
        }
      ],
      "stateMutability": "view",
      "type": "function"
    },
    {
      "inputs": [
        {
          "internalType": "uint8",
          "name": "",
          "type": "uint8"
        }
      ],
      "name": "polls",
      "outputs": [
        {
          "internalType": "uint8",
          "name": "id",
          "type": "uint8"
        },
        {
          "internalType": "address",
          "name": "author",
          "type": "address"
        },
        {
          "internalType": "string",
          "name": "title",
          "type": "string"
        },
        {
          "internalType": "uint8",
          "name": "optionsCount",
          "type": "uint8"
        },
        {
          "internalType": "enum PollingSys.STATE",
          "name": "state",
          "type": "uint8"
        }
      ],
      "stateMutability": "view",
      "type": "function"
    },
    {
      "inputs": [
        {
          "internalType": "uint8",
          "name": "_pollId",
          "type": "uint8"
        },
        {
          "internalType": "enum PollingSys.STATE",
          "name": "_newState",
          "type": "uint8"
        }
      ],
      "name": "state",
      "outputs": [],
      "stateMutability": "nonpayable",
      "type": "function"
    },
    {
      "inputs": [
        {
          "internalType": "uint8",
          "name": "_pollId",
          "type": "uint8"
        },
        {
          "internalType": "uint8",
          "name": "_optionId",
          "type": "uint8"
        }
      ],
      "name": "vote",
      "outputs": [],
      "stateMutability": "nonpayable",
      "type": "function"
    }
  ],
  "bytecode": "0x6080604052348015600f57600080fd5b506111d68061001f6000396000f3fe608060405234801561001057600080fd5b506004361061009e5760003560e01c80639207891d116100665780639207891d14610169578063927011dd14610188578063b6a46b3b146101ac578063c8e1107d146101bf578063df49c4de146101e057600080fd5b806304b1d173146100a357806310eaa61d146100cd5780634e081c5e146100ed5780635202d335146101025780638728844014610115575b600080fd5b6100b66100b1366004610be9565b6101f3565b6040516100c4929190610c0b565b60405180910390f35b6100e06100db366004610c90565b610390565b6040516100c49190610d09565b6101006100fb366004610ded565b6104bc565b005b610100610110366004610e3b565b61069a565b610159610123366004610e76565b60ff91821660009081526001602090815260408083206001600160a01b0394909416835260049093019052205461010090041690565b60405190151581526020016100c4565b6000546101769060ff1681565b60405160ff90911681526020016100c4565b61019b610196366004610be9565b6107fb565b6040516100c4959493929190610ee6565b6101006101ba366004610f35565b6108c8565b6101d26101cd366004610c90565b610987565b6040519081526020016100c4565b6101006101ee366004610c90565b6109d6565b60ff80821660009081526001602052604090206002810154606092839291168067ffffffffffffffff81111561022b5761022b610d48565b604051908082528060200260200182016040528015610254578160200160208202803683370190505b5093508060ff1667ffffffffffffffff81111561027357610273610d48565b60405190808252806020026020018201604052801561029c578160200160208202803683370190505b50925060015b8160ff168160ff161161038857600383016102be600183610f88565b60ff16815481106102d1576102d1610fa1565b600091825260209091206003909102015460ff16856102f1600184610f88565b60ff168151811061030457610304610fa1565b60ff9092166020928302919091019091015260038301610325600183610f88565b60ff168154811061033857610338610fa1565b906000526020600020906003020160020154846001836103589190610f88565b60ff168151811061036b5761036b610fa1565b60209081029190910101528061038081610fb7565b9150506102a2565b505050915091565b6103b76040518060600160405280600060ff16815260200160608152602001600081525090565b60ff83166000908152600160208190526040909120600301906103da9084610f88565b60ff16815481106103ed576103ed610fa1565b60009182526020918290206040805160608101909152600390920201805460ff168252600181018054929391929184019161042790610fd6565b80601f016020809104026020016040519081016040528092919081815260200182805461045390610fd6565b80156104a05780601f10610475576101008083540402835291602001916104a0565b820191906000526020600020905b81548152906001019060200180831161048357829003601f168201915b5050505050815260200160028201548152505090505b92915050565b60ff8216600090815260016020526040902054829061010090046001600160a01b031633146105325760405162461bcd60e51b815260206004820181905260248201527f4f6e6c7920617574686f722063616e206d616e616765207468697320706f6c6c60448201526064015b60405180910390fd5b8260008060ff80841660009081526001602052604090206005015416600281111561055f5761055f610eae565b146105a15760405162461bcd60e51b8152602060048201526012602482015271496e76616c696420706f6c6c20737461746560701b6044820152606401610529565b60ff8086166000908152600160205260408120600281018054919391909116916105ca83610fb7565b82546101009290920a60ff8181021990931691831602179091556040805160608101825260028501548316815260208082018a8152600093830184905260038088018054600181810183559187529390952084519390910201805460ff1916929095169190911784555190935090820190610645908261105f565b5060409182015160029182015582015490517f68f0f4f8783fab504e65f3c157502ba148ae373c1c7f0d365c8d33cfa62e58549161068a91899160ff1690899061111e565b60405180910390a1505050505050565b60ff82166000908152600160205260409020805461010090046001600160a01b0316331461071d5760405162461bcd60e51b815260206004820152602a60248201527f4f6e6c79207468652063726561746f722063616e206368616e67652074686520604482015269706f6c6c20737461746560b01b6064820152608401610529565b600581015460ff16600281111561073657610736610eae565b82600281111561074857610748610eae565b116107955760405162461bcd60e51b815260206004820152601860248201527f496e76616c6964207374617465207472616e736974696f6e00000000000000006044820152606401610529565b60058101805483919060ff191660018360028111156107b6576107b6610eae565b02179055508260ff167fe8a97ea87e4388fa22d496b95a8ed5ced6717f49790318de2b928aaf37a021d8836040516107ee919061114c565b60405180910390a2505050565b60016020819052600091825260409091208054918101805460ff84169361010090046001600160a01b031692919061083290610fd6565b80601f016020809104026020016040519081016040528092919081815260200182805461085e90610fd6565b80156108ab5780601f10610880576101008083540402835291602001916108ab565b820191906000526020600020905b81548152906001019060200180831161088e57829003601f168201915b505050506002830154600590930154919260ff9081169216905085565b6000805460ff1690806108da83610fb7565b825461010092830a60ff8181021990921692821602919091179092556000805490921680835260016020819052604090932080546001600160a81b0319169091173390920291909117815591508101610933838261105f565b5060058101805460ff191690556000546040517fc6b59520e007e34c40ece452816742b025a34e535a2853e2f3b246b9d603305f9161097b9160ff909116903390869061115a565b60405180910390a15050565b60ff821660009081526001602081905260408220600301906109a99084610f88565b60ff16815481106109bc576109bc610fa1565b906000526020600020906003020160020154905092915050565b81600160ff808316600090815260016020526040902060050154166002811115610a0257610a02610eae565b14610a4f5760405162461bcd60e51b815260206004820152601f60248201527f506f6c6c206973206e6f7420696e2074686520766f74696e67207068617365006044820152606401610529565b60ff80841660009081526001602090815260408083203384526004810190925290912080549192909161010090041615610acb5760405162461bcd60e51b815260206004820152601760248201527f566f7465722068617320616c726561647920766f7465640000000000000000006044820152606401610529565b60008460ff16118015610ae95750600282015460ff90811690851611155b610b265760405162461bcd60e51b815260206004820152600e60248201526d24b73b30b634b21037b83a34b7b760911b6044820152606401610529565b60038201610b35600186610f88565b60ff1681548110610b4857610b48610fa1565b600091825260208220600260039092020101805491610b6683611187565b9091555050805460ff85811662010000810262ffff0019909316929092176101001783556040805191881682523360208301528101919091527f51c6541400e7d16e7c379115ca484756f9f6217b0e25bee5121f2c28d3bb54209060600160405180910390a15050505050565b803560ff81168114610be457600080fd5b919050565b600060208284031215610bfb57600080fd5b610c0482610bd3565b9392505050565b6040808252835190820181905260009060208501906060840190835b81811015610c4857835160ff16835260209384019390920191600101610c27565b50508381036020808601919091528551808352918101925085019060005b81811015610c84578251845260209384019390920191600101610c66565b50919695505050505050565b60008060408385031215610ca357600080fd5b610cac83610bd3565b9150610cba60208401610bd3565b90509250929050565b6000815180845260005b81811015610ce957602081850181015186830182015201610ccd565b506000602082860101526020601f19601f83011685010191505092915050565b6020815260ff82511660208201526000602083015160606040840152610d326080840182610cc3565b9050604084015160608401528091505092915050565b634e487b7160e01b600052604160045260246000fd5b600082601f830112610d6f57600080fd5b813567ffffffffffffffff811115610d8957610d89610d48565b604051601f8201601f19908116603f0116810167ffffffffffffffff81118282101715610db857610db8610d48565b604052818152838201602001851015610dd057600080fd5b816020850160208301376000918101602001919091529392505050565b60008060408385031215610e0057600080fd5b610e0983610bd3565b9150602083013567ffffffffffffffff811115610e2557600080fd5b610e3185828601610d5e565b9150509250929050565b60008060408385031215610e4e57600080fd5b610e5783610bd3565b9150602083013560038110610e6b57600080fd5b809150509250929050565b60008060408385031215610e8957600080fd5b610e9283610bd3565b915060208301356001600160a01b0381168114610e6b57600080fd5b634e487b7160e01b600052602160045260246000fd5b60038110610ee257634e487b7160e01b600052602160045260246000fd5b9052565b60ff861681526001600160a01b038516602082015260a060408201819052600090610f1390830186610cc3565b905060ff84166060830152610f2b6080830184610ec4565b9695505050505050565b600060208284031215610f4757600080fd5b813567ffffffffffffffff811115610f5e57600080fd5b610f6a84828501610d5e565b949350505050565b634e487b7160e01b600052601160045260246000fd5b60ff82811682821603908111156104b6576104b6610f72565b634e487b7160e01b600052603260045260246000fd5b600060ff821660ff8103610fcd57610fcd610f72565b60010192915050565b600181811c90821680610fea57607f821691505b60208210810361100a57634e487b7160e01b600052602260045260246000fd5b50919050565b601f82111561105a57806000526020600020601f840160051c810160208510156110375750805b601f840160051c820191505b818110156110575760008155600101611043565b50505b505050565b815167ffffffffffffffff81111561107957611079610d48565b61108d816110878454610fd6565b84611010565b6020601f8211600181146110c157600083156110a95750848201515b600019600385901b1c1916600184901b178455611057565b600084815260208120601f198516915b828110156110f157878501518255602094850194600190920191016110d1565b508482101561110f5786840151600019600387901b60f8161c191681555b50505050600190811b01905550565b60ff8416815260ff831660208201526060604082015260006111436060830184610cc3565b95945050505050565b602081016104b68284610ec4565b60ff841681526001600160a01b038316602082015260606040820181905260009061114390830184610cc3565b60006001820161119957611199610f72565b506001019056fea26469706673582212206736ab021a0e58f0f020abd5d5fb27b11341587c5fb5bf336e0e148021a39cd464736f6c634300081c0033",
  "linkReferences": {},
  "deployedLinkReferences": {}
}