{
  "_format": "hh-sol-artifact-1",
  "contractName": "PollingSys",
  "sourceName": "contracts/PollingSys.sol",
  "abi": [
    {
      "anonymous": false,
      "inputs": [
        {
          "indexed": false,
          "internalType": "uint8",
          "name": "pollId",
          "type": "uint8"
        },
        {
          "indexed": false,
          "internalType": "uint8",
          "name": "optionId",
          "type": "uint8"
        },
        {
          "indexed": false,
          "internalType": "string",
          "name": "name",
          "type": "string"
        }
      ],
      "name": "OptionAdded",
      "type": "event"
    },
    {
      "anonymous": false,
      "inputs": [
        {
          "indexed": false,
          "internalType": "uint8",
          "name": "pollId",
          "type": "uint8"
        },
        {
          "indexed": false,
          "internalType": "address",
          "name": "author",
          "type": "address"
        },
        {
          "indexed": false,
          "internalType": "string",
          "name": "title",
          "type": "string"
        }
      ],
      "name": "PollCreated",
      "type": "event"
    },
    {
      "anonymous": false,
      "inputs": [
        {
          "indexed": true,
          "internalType": "uint8",
          "name": "pollId",
          "type": "uint8"
        },
        {
          "indexed": false,
          "internalType": "enum PollingSys.STATE",
          "name": "newState",
          "type": "uint8"
        }
      ],
      "name": "StateChanged",
      "type": "event"
    },
    {
      "anonymous": false,
      "inputs": [
        {
          "indexed": false,
          "internalType": "uint8",
          "name": "pollId",
          "type": "uint8"
        },
        {
          "indexed": false,
          "internalType": "address",
          "name": "voter",
          "type": "address"
        },
        {
          "indexed": false,
          "internalType": "uint8",
          "name": "optionId",
          "type": "uint8"
        }
      ],
      "name": "Voted",
      "type": "event"
    },
    {
      "inputs": [
        {
          "internalType": "uint8",
          "name": "_pollId",
          "type": "uint8"
        },
        {
          "internalType": "string",
          "name": "_name",
          "type": "string"
        }
      ],
      "name": "addOptionsToPoll",
      "outputs": [],
      "stateMutability": "nonpayable",
      "type": "function"
    },
    {
      "inputs": [
        {
          "internalType": "uint8",
          "name": "_pollId",
          "type": "uint8"
        },
        {
          "internalType": "enum PollingSys.STATE",
          "name": "_newState",
          "type": "uint8"
        }
      ],
      "name": "changePollState",
      "outputs": [],
      "stateMutability": "nonpayable",
      "type": "function"
    },
    {
      "inputs": [
        {
          "internalType": "string",
          "name": "_title",
          "type": "string"
        }
      ],
      "name": "createPoll",
      "outputs": [],
      "stateMutability": "nonpayable",
      "type": "function"
    },
    {
      "inputs": [
        {
          "internalType": "uint8",
          "name": "_pollId",
          "type": "uint8"
        },
        {
          "internalType": "uint8",
          "name": "_optionId",
          "type": "uint8"
        }
      ],
      "name": "getOptionById",
      "outputs": [
        {
          "components": [
            {
              "internalType": "uint8",
              "name": "id",
              "type": "uint8"
            },
            {
              "internalType": "string",
              "name": "name",
              "type": "string"
            },
            {
              "internalType": "uint256",
              "name": "voteCount",
              "type": "uint256"
            }
          ],
          "internalType": "struct PollingSys.Option",
          "name": "",
          "type": "tuple"
        }
      ],
      "stateMutability": "view",
      "type": "function"
    },
    {
      "inputs": [
        {
          "internalType": "uint8",
          "name": "_pollId",
          "type": "uint8"
        }
      ],
      "name": "getPollResult",
      "outputs": [
        {
          "internalType": "uint8[]",
          "name": "optionIds",
          "type": "uint8[]"
        },
        {
          "internalType": "uint256[]",
          "name": "voteCounts",
          "type": "uint256[]"
        }
      ],
      "stateMutability": "view",
      "type": "function"
    },
    {
      "inputs": [
        {
          "internalType": "uint8",
          "name": "_pollId",
          "type": "uint8"
        },
        {
          "internalType": "uint8",
          "name": "_optionId",
          "type": "uint8"
        }
      ],
      "name": "getVoteCount",
      "outputs": [
        {
          "internalType": "uint256",
          "name": "",
          "type": "uint256"
        }
      ],
      "stateMutability": "view",
      "type": "function"
    },
    {
      "inputs": [
        {
          "internalType": "uint8",
          "name": "_pollId",
          "type": "uint8"
        },
        {
          "internalType": "address",
          "name": "_voter",
          "type": "address"
        }
      ],
      "name": "hasVoted",
      "outputs": [
        {
          "internalType": "bool",
          "name": "",
          "type": "bool"
        }
      ],
      "stateMutability": "view",
      "type": "function"
    },
    {
      "inputs": [],
      "name": "pollCount",
      "outputs": [
        {
          "internalType": "uint8",
          "name": "",
          "type": "uint8"
        }
      ],
      "stateMutability": "view",
      "type": "function"
    },
    {
      "inputs": [
        {
          "internalType": "uint8",
          "name": "",
          "type": "uint8"
        }
      ],
      "name": "polls",
      "outputs": [
        {
          "internalType": "uint8",
          "name": "id",
          "type": "uint8"
        },
        {
          "internalType": "address",
          "name": "author",
          "type": "address"
        },
        {
          "internalType": "string",
          "name": "title",
          "type": "string"
        },
        {
          "internalType": "uint8",
          "name": "optionsCount",
          "type": "uint8"
        },
        {
          "internalType": "enum PollingSys.STATE",
          "name": "state",
          "type": "uint8"
        }
      ],
      "stateMutability": "view",
      "type": "function"
    },
    {
      "inputs": [
        {
          "internalType": "uint8",
          "name": "_pollId",
          "type": "uint8"
        },
        {
          "internalType": "uint8",
          "name": "_optionId",
          "type": "uint8"
        }
      ],
      "name": "vote",
      "outputs": [],
      "stateMutability": "nonpayable",
      "type": "function"
    }
  ],
  "bytecode": "0x6080604052348015600f57600080fd5b506111228061001f6000396000f3fe608060405234801561001057600080fd5b506004361061009e5760003560e01c80639207891d116100665780639207891d14610169578063927011dd14610188578063a748dc9b146101ac578063c8e1107d146101bf578063df49c4de1461020757600080fd5b806304b1d173146100a357806310eaa61d146100cd5780631eb6e019146100ed57806374a9ced9146101025780638728844014610115575b600080fd5b6100b66100b1366004610b35565b61021a565b6040516100c4929190610b57565b60405180910390f35b6100e06100db366004610bdc565b61037b565b6040516100c49190610c55565b6101006100fb366004610c94565b610480565b005b610100610110366004610d74565b6105e6565b610159610123366004610db1565b60ff91821660009081526001602090815260408083206001600160a01b0394909416835260049093019052205461010090041690565b60405190151581526020016100c4565b6000546101769060ff1681565b60405160ff90911681526020016100c4565b61019b610196366004610b35565b6106a5565b6040516100c4959493929190610e21565b6101006101ba366004610e70565b610772565b6101f96101cd366004610bdc565b60ff91821660009081526001602090815260408083209390941682526003909201909152206002015490565b6040519081526020016100c4565b610100610215366004610bdc565b61093f565b60ff80821660009081526001602052604090206002810154606092839291168067ffffffffffffffff81111561025257610252610ccf565b60405190808252806020026020018201604052801561027b578160200160208202803683370190505b5093508060ff1667ffffffffffffffff81111561029a5761029a610ccf565b6040519080825280602002602001820160405280156102c3578160200160208202803683370190505b50925060015b8160ff168160ff16116103735760ff808216600090815260038501602052604090205416856102f9600184610ed4565b60ff168151811061030c5761030c610eed565b60ff928316602091820292909201810191909152908216600090815260038501909152604090206002015484610343600184610ed4565b60ff168151811061035657610356610eed565b60209081029190910101528061036b81610f03565b9150506102c9565b505050915091565b6103a26040518060600160405280600060ff16815260200160608152602001600081525090565b60ff80841660009081526001602081815260408084208786168552600301825292839020835160608101909452805490941683529083018054929392918401916103eb90610f22565b80601f016020809104026020016040519081016040528092919081815260200182805461041790610f22565b80156104645780601f1061043957610100808354040283529160200191610464565b820191906000526020600020905b81548152906001019060200180831161044757829003601f168201915b5050505050815260200160028201548152505090505b92915050565b60ff82166000908152600160205260409020805461010090046001600160a01b031633146105085760405162461bcd60e51b815260206004820152602a60248201527f4f6e6c79207468652063726561746f722063616e206368616e67652074686520604482015269706f6c6c20737461746560b01b60648201526084015b60405180910390fd5b600581015460ff16600281111561052157610521610de9565b82600281111561053357610533610de9565b116105805760405162461bcd60e51b815260206004820152601860248201527f496e76616c6964207374617465207472616e736974696f6e000000000000000060448201526064016104ff565b60058101805483919060ff191660018360028111156105a1576105a1610de9565b02179055508260ff167fe8a97ea87e4388fa22d496b95a8ed5ced6717f49790318de2b928aaf37a021d8836040516105d99190610f5c565b60405180910390a2505050565b6000805460ff1690806105f883610f03565b825461010092830a60ff8181021990921692821602919091179092556000805490921680835260016020819052604090932080546001600160a81b03191690911733909202919091178155915081016106518382610fb9565b5060058101805460ff191690556000546040517fc6b59520e007e34c40ece452816742b025a34e535a2853e2f3b246b9d603305f916106999160ff9091169033908690611078565b60405180910390a15050565b60016020819052600091825260409091208054918101805460ff84169361010090046001600160a01b03169291906106dc90610f22565b80601f016020809104026020016040519081016040528092919081815260200182805461070890610f22565b80156107555780601f1061072a57610100808354040283529160200191610755565b820191906000526020600020905b81548152906001019060200180831161073857829003601f168201915b505050506002830154600590930154919260ff9081169216905085565b60ff8216600090815260016020526040902054829061010090046001600160a01b031633146107e35760405162461bcd60e51b815260206004820181905260248201527f4f6e6c7920617574686f722063616e206d616e616765207468697320706f6c6c60448201526064016104ff565b8260008060ff80841660009081526001602052604090206005015416600281111561081057610810610de9565b146108525760405162461bcd60e51b8152602060048201526012602482015271496e76616c696420706f6c6c20737461746560701b60448201526064016104ff565b60ff80861660009081526001602052604081206002810180549193919091169161087b83610f03565b82546101009290920a60ff818102199093169183160217909155604080516060810182526002850154831680825260208083018b81526000848601819052928352600388019091529290208151815460ff19169416939093178355905190925060018201906108ea9082610fb9565b5060409182015160029182015582015490517f68f0f4f8783fab504e65f3c157502ba148ae373c1c7f0d365c8d33cfa62e58549161092f91899160ff169089906110ae565b60405180910390a1505050505050565b81600160ff80831660009081526001602052604090206005015416600281111561096b5761096b610de9565b146109b85760405162461bcd60e51b815260206004820152601f60248201527f506f6c6c206973206e6f7420696e2074686520766f74696e672070686173650060448201526064016104ff565b60ff80841660009081526001602090815260408083203384526004810190925290912080549192909161010090041615610a345760405162461bcd60e51b815260206004820152601760248201527f566f7465722068617320616c726561647920766f74656400000000000000000060448201526064016104ff565b60008460ff16118015610a525750600282015460ff90811690851611155b610a8f5760405162461bcd60e51b815260206004820152600e60248201526d24b73b30b634b21037b83a34b7b760911b60448201526064016104ff565b60ff841660009081526003830160205260408120600201805491610ab2836110d3565b9091555050805460ff85811662010000810262ffff0019909316929092176101001783556040805191881682523360208301528101919091527f51c6541400e7d16e7c379115ca484756f9f6217b0e25bee5121f2c28d3bb54209060600160405180910390a15050505050565b803560ff81168114610b3057600080fd5b919050565b600060208284031215610b4757600080fd5b610b5082610b1f565b9392505050565b6040808252835190820181905260009060208501906060840190835b81811015610b9457835160ff16835260209384019390920191600101610b73565b50508381036020808601919091528551808352918101925085019060005b81811015610bd0578251845260209384019390920191600101610bb2565b50919695505050505050565b60008060408385031215610bef57600080fd5b610bf883610b1f565b9150610c0660208401610b1f565b90509250929050565b6000815180845260005b81811015610c3557602081850181015186830182015201610c19565b506000602082860101526020601f19601f83011685010191505092915050565b6020815260ff82511660208201526000602083015160606040840152610c7e6080840182610c0f565b9050604084015160608401528091505092915050565b60008060408385031215610ca757600080fd5b610cb083610b1f565b9150602083013560038110610cc457600080fd5b809150509250929050565b634e487b7160e01b600052604160045260246000fd5b600082601f830112610cf657600080fd5b813567ffffffffffffffff811115610d1057610d10610ccf565b604051601f8201601f19908116603f0116810167ffffffffffffffff81118282101715610d3f57610d3f610ccf565b604052818152838201602001851015610d5757600080fd5b816020850160208301376000918101602001919091529392505050565b600060208284031215610d8657600080fd5b813567ffffffffffffffff811115610d9d57600080fd5b610da984828501610ce5565b949350505050565b60008060408385031215610dc457600080fd5b610dcd83610b1f565b915060208301356001600160a01b0381168114610cc457600080fd5b634e487b7160e01b600052602160045260246000fd5b60038110610e1d57634e487b7160e01b600052602160045260246000fd5b9052565b60ff861681526001600160a01b038516602082015260a060408201819052600090610e4e90830186610c0f565b905060ff84166060830152610e666080830184610dff565b9695505050505050565b60008060408385031215610e8357600080fd5b610e8c83610b1f565b9150602083013567ffffffffffffffff811115610ea857600080fd5b610eb485828601610ce5565b9150509250929050565b634e487b7160e01b600052601160045260246000fd5b60ff828116828216039081111561047a5761047a610ebe565b634e487b7160e01b600052603260045260246000fd5b600060ff821660ff8103610f1957610f19610ebe565b60010192915050565b600181811c90821680610f3657607f821691505b602082108103610f5657634e487b7160e01b600052602260045260246000fd5b50919050565b6020810161047a8284610dff565b601f821115610fb457806000526020600020601f840160051c81016020851015610f915750805b601f840160051c820191505b81811015610fb15760008155600101610f9d565b50505b505050565b815167ffffffffffffffff811115610fd357610fd3610ccf565b610fe781610fe18454610f22565b84610f6a565b6020601f82116001811461101b57600083156110035750848201515b600019600385901b1c1916600184901b178455610fb1565b600084815260208120601f198516915b8281101561104b578785015182556020948501946001909201910161102b565b50848210156110695786840151600019600387901b60f8161c191681555b50505050600190811b01905550565b60ff841681526001600160a01b03831660208201526060604082018190526000906110a590830184610c0f565b95945050505050565b60ff8416815260ff831660208201526060604082015260006110a56060830184610c0f565b6000600182016110e5576110e5610ebe565b506001019056fea264697066735822122038aeb6eeb83e8a79453b14e5c31ba09345c5d911358fbadc5611395389e4d0cf64736f6c634300081c0033",
  "linkReferences": {},
  "deployedLinkReferences": {}
}